:020000040800F2
:20000000000002207DC00008016E00083D6E0008516E0008556E0008596E000800000000EE
:20002000000000000000000000000000114B00085D6E000800000000A14B0008616E0008BE
:20004000D1C00008D1C00008D1C00008D1C00008D1C00008D1C0000829700008D1C00008D0
:20006000317000083970000841700008656E0008D1C00008716E0008D1C000087D6E000886
:20008000896E0008D1C00008356F0008956E0008A16E0008A56E0008A96E000849700008FF
:2000A000D1C00008E96F0008D1C00008D1C00008D1C00008D1C00008D1C0000811700008C1
:2000C0001D700008D1C00008D1C00008D1C00008D1C00008D1C00008D1C00008D1C000085C
:2000E00071700008D1C00008D1C00008D1C00008FD6F0008AD6E0008D1C00008D1C0000883
:20010000D1C00008D1C00008C96F0008C96E0008D56E0008D1C00008D1C00008D1C0000818
:20012000D1C00008D1C00008D1C00008D1C00008D1C000080000000000000000D1C0000829
:20014000D1C00008D1C00008D1C00008E16E0008D1C00008D1C00008D1C00008D1C0000819
:20016000D1C00008D1C00008D1C00008D1C00008D1C00008D1C000080000000000000000E9
:20018000D1C00008D1C00008FFFFFFFFFFFFFFFF10B5054C237833B9044B13B10448AFF397
:2001A00000800123237010BD0806002000000000E093020808B5034B1BB103490348AFF380
:2001C000008008BD000000000C060020E093020810F8012B11F8013B012A28BF9A42F7D0FD
:2001E000D01A7047034613F8012B002AFBD1181A01387047000000000000000000000000C6
:2002000001F0FF01102A2BDB10F0070F08D010F8013B013A8B422DD010F0070F42B3F6D1A4
:20022000F0B441EA012141EA014122F007047FF000070023F0E80256083C85EA010586EA51
:20024000010685FA47F5A3FA87F586FA47F6A5FA87F68EB9EED1F0BC01F0FF0102F007024C
:2002600032B110F8013B013A83EA010313B1F8D10020704701387047002D06BF35460338AF
:20028000073815F0010F07D1013015F4807F02BF013015F4C03F0130F0BC0138704700BF73
:2002A00081F0004102E000BF83F0004330B54FEA41044FEA430594EA050F08BF90EA020F6D
:2002C0001FBF54EA000C55EA020C7FEA645C7FEA655C00F0E2804FEA5454D4EB5555B8BF43
:2002E0006D420CDD2C4480EA020281EA030382EA000083EA010180EA020281EA0303362DFA
:2003000088BF30BD11F0004F4FEA01314FF4801C4CEA113102D0404261EB410113F0004F63
:200320004FEA03334CEA133302D0524263EB430394EA050F00F0A780A4F10104D5F1200EA1
:200340000DDB02FA0EFC22FA05F2801841F1000103FA0EF2801843FA05F359410EE0A5F1E9
:2003600020050EF1200E012A03FA0EFC28BF4CF0020C43FA05F3C01851EBE37101F00045F5
:2003800007D54FF0000EDCF1000C7EEB00006EEB0101B1F5801F1BD3B1F5001F0CD349086F
:2003A0005FEA30004FEA3C0C04F101044FEA445212F5800F80F09A80BCF1004F08BF5FEA4E
:2003C000500C50F1000041EB045141EA050130BD5FEA4C0C404141EB010111F4801FA4F158
:2003E0000104E9D191F0000F04BF01460020B1FA81F308BF2033A3F10B03B3F120020CDAFD
:200400000C3208DD02F1140CC2F10C0201FA0CF021FA02F10CE002F11402D8BFC2F1200C75
:2004200001FA02F120FA0CFCDCBF41EA0C019040E41AA2BF01EB0451294330BD6FEA0404AF
:200440001F3C1CDA0C340EDC04F11404C4F1200220FA04F001FA02F340EA030021FA04F300
:2004600045EA030130BDC4F10C04C4F1200220FA02F001FA04F340EA0300294630BD21FA1E
:2004800004F0294630BD94F0000F83F4801306BF81F480110134013D4EE77FEA645C18BFFC
:2004A0007FEA655C29D094EA050F08BF90EA020F05D054EA000C04BF1946104630BD91EA36
:2004C000030F1EBF0021002030BD5FEA545C05D14000494128BF41F0004130BD14F5800493
:2004E0003CBF01F5801130BD01F0004545F0FE4141F470014FF0000030BD7FEA645C1ABF0F
:20050000194610467FEA655C1CBF0B46024650EA013406BF52EA033591EA030F41F40021FD
:2005200030BD00BF90F0000F04BF0021704730B54FF4806404F132044FF000054FF000012A
:2005400050E700BF90F0000F04BF0021704730B54FF4806404F1320410F0004548BF404276
:200560004FF000013EE700BF42004FEAE2014FEA31014FEA02701FBF12F07F4393F07F4FF0
:2005800081F06051704732F07F4208BF704793F07F4F04BF41F40021704730B54FF4607404
:2005A00001F0004521F000411CE700BF50EA010208BF704730B54FF000050AE050EA0102E6
:2005C00008BF704730B511F0004502D5404261EB41014FF4806404F132045FEA915C3FF4D0
:2005E000D8AE4FF003025FEADC0C18BF03325FEADC0C18BF033202EBDC02C2F1200300FA1C
:2006000003FC20FA02F001FA03FE40EA0E0021FA02F11444BDE600BF70B54FF0FF0C4CF424
:20062000E06C1CEA11541DBF1CEA135594EA0C0F95EA0C0F00F0DEF82C4481EA030621EAD1
:200640004C5123EA4C5350EA013518BF52EA033541F4801143F4801338D0A0FB02CE4FF054
:200660000005E1FB02E506F00042E0FB03E54FF00006E1FB03569CF0000F18BF4EF0010E7E
:20068000A4F1FF04B6F5007F64F5407404D25FEA4E0E6D4146EB060642EAC62141EA555141
:2006A0004FEAC52040EA5E504FEACE2EB4F1FD0C88BFBCF5E06F1ED8BEF1004F08BF5FEA16
:2006C000500E50F1000041EB045170BD06F0004646EA010140EA020081EA0301B4EB5C04C5
:2006E000C2BFD4EB0C0541EA045170BD41F480114FF0000E013C00F3AB8014F1360FDEBFA7
:20070000002001F0004170BDC4F10004203C35DA0C341BDC04F11404C4F1200500FA05F326
:2007200020FA04F001FA05F240EA020001F0004221F0004110EBD37021FA04F642EB060181
:200740005EEA430E08BF20EAD37070BDC4F10C04C4F1200500FA04F320FA05F001FA04F22F
:2007600040EA020001F0004110EBD37041F100015EEA430E08BF20EAD37070BDC4F12005F6
:2007800000FA05F24EEA020E20FA04F301FA05F243EA020321FA04F001F0004121FA04F299
:2007A00020EA020000EBD3705EEA430E08BF20EAD37070BD94F0000F0FD101F0004640003B
:2007C00041EB010111F4801F08BF013CF7D041EA060195F0000F18BF704703F0004652009D
:2007E00043EB030313F4801F08BF013DF7D043EA0603704794EA0C0F0CEA135518BF95EA19
:200800000C0F0CD050EA410618BF52EA4306D1D181EA030101F000414FF0000070BD50EA1B
:20082000410606BF1046194652EA430619D094EA0C0F02D150EA013613D195EA0C0F05D158
:2008400052EA03361CBF104619460AD181EA030101F0004141F0FE4141F470014FF00000C2
:2008600070BD41F0FE4141F4780170BD70B54FF0FF0C4CF4E06C1CEA11541DBF1CEA135550
:2008800094EA0C0F95EA0C0F00F0A7F8A4EB050481EA030E52EA03354FEA013100F08880AB
:2008A0004FEA03334FF0805545EA131343EA12634FEA022245EA111545EA10654FEA002609
:2008C0000EF000419D4208BF964244F1FD0404F5407402D25B084FEA3202B61A65EB0305AC
:2008E0005B084FEA32024FF480104FF4002CB6EB020E75EB030E22BFB61A754640EA0C0022
:200900005B084FEA3202B6EB020E75EB030E22BFB61A754640EA5C005B084FEA3202B6EB82
:20092000020E75EB030E22BFB61A754640EA9C005B084FEA3202B6EB020E75EB030E22BF31
:20094000B61A754640EADC0055EA060E18D04FEA051545EA16754FEA06164FEAC30343EA3D
:2009600052734FEAC2025FEA1C1CC0D111F4801F0BD141EA00014FF000004FF0004CB6E790
:2009800011F4801F04BF01430020B4F1FD0C88BFBCF5E06F3FF6AFAEB5EB030C04BFB6EBF2
:2009A000020C5FEA500C50F1000041EB045170BD0EF0004E4EEA113114EB5C04C2BFD4EB30
:2009C0000C0541EA045170BD41F480114FF0000E013C90E645EA060E8DE60CEA135594EA01
:2009E0000C0F08BF95EA0C0F3FF43BAF94EA0C0F0AD150EA01347FF434AF95EA0C0F7FF418
:200A000025AF104619462CE795EA0C0F06D152EA03353FF4FDAE1046194622E750EA410638
:200A200018BF52EA43067FF4C5AE50EA41047FF40DAF52EA43057FF4EBAE12E74FF0FF3CC3
:200A400006E000BF4FF0010C02E000BF4FF0010C4DF804CD4FEA410C7FEA6C5C4FEA430C63
:200A600018BF7FEA6C5C1BD001B050EA410C0CBF52EA430C91EA030F02BF90EA020F0020FC
:200A8000704710F1000F91EA030F58BF994208BF90422CBFD8176FEAE37040F00100704709
:200AA0004FEA410C7FEA6C5C02D150EA013C07D14FEA430C7FEA6C5CD6D152EA033CD3D0DF
:200AC0005DF8040B704700BF8446104662468C461946634600E000BF01B5FFF7B7FF002871
:200AE00048BF10F1000F01BD4DF808EDFFF7F4FF0CBF012000205DF808FB00BF4DF808EDA1
:200B0000FFF7EAFF34BF012000205DF808FB00BF4DF808EDFFF7E0FF94BF012000205DF8B3
:200B200008FB00BF4DF808EDFFF7CEFF94BF012000205DF808FB00BF4DF808EDFFF7C4FF58
:200B400034BF012000205DF808FB00BF4FEA410C7FEA6C5C02D150EA013C0AD14FEA430CE6
:200B60007FEA6C5C02D152EA033C02D14FF0000070474FF0010070474FEA410212F50012A1
:200B800015D211D56FF47873B3EB625212D94FEAC12343F0004343EA505311F0004F23FA2D
:200BA00002F018BF404270474FF00000704750EA013005D111F0004008BF6FF0004070479E
:200BC0004FF00000704700BF4A0011D212F5001211D20DD56FF47873B3EB62520ED44FEA9A
:200BE000C12343F0004343EA505323FA02F070474FF00000704750EA013002D14FF0FF3063
:200C000070474FF0000070474FEA4102B2F1E04324BFB3F5001CDCF1FE5C0DD901F0004CF4
:200C20004FEAC0024CEA5070B2F1004F40EB830008BF20F00100704711F0804F21D113F1CE
:200C40003872BCBF01F00040704741F480114FEA5252C2F11802C2F1200C10FA0CF320FA15
:200C600002F018BF40F001004FEAC1234FEAD32303FA0CFC40EA0C0023FA02F34FEA430362
:200C8000CCE77FEA625307D150EA01331EBF4FF0FE4040F44000704701F0004040F0FE4019
:200CA00040F40000704700BF7BB972B90029BEBF00204FF0004106E008BF00281CBF6FF0D6
:200CC00000414FF0FF3001F043B9ADF1080C6DE904CE002909DB002B1ADB00F04DF8DDF867
:200CE00004E0DDE9022304B07047404261EB4101002B1BDB00F040F8DDF804E0DDE90223BD
:200D000004B0404261EB4101524263EB43037047524263EB430300F02FF8DDF804E0DDE972
:200D2000022304B0404261EB41017047524263EB430300F021F8DDF804E0DDE9022304B08A
:200D4000524263EB4303704753B94AB9002908BF00281CBF4FF0FF314FF0FF3001F0F8B834
:200D6000ADF1080C6DE904CE00F006F8DDF804E0DDE9022304B070472DE9F047089E04465F
:200D80008846002B4BD18A42154667D9B2FA82F24AB1C2F1200701FA02F320FA07F7954005
:200DA00047EA030894404FEA154E230CB8FBFEF71FFA85FC0EFB178843EA084307FB0CF1F7
:200DC000994209D9EB1807F1FF3080F01B81994240F21881023F2B445B1AA4B2B3FBFEF063
:200DE0000EFB103344EA034400FB0CFCA44509D92C1900F1FF3380F00781A44540F2048164
:200E000002382C4440EA0740A4EB0C0400271EB1D4400023C6E900433946BDE8F0878B4291
:200E200009D9002E00F0EB800027C6E9000138463946BDE8F087B3FA83F7002F47D18B421C
:200E400002D3824200F2FA80841A61EB030301209846002EE0D0C6E90048DDE702B9FFDE6D
:200E6000B2FA82F2002A40F08F80491B4FEA154E1FFA85F80127B1FBFEFC230C0EFB1C1120
:200E800043EA014308FB0CF1994207D9EB180CF1FF3002D2994200F2CD808446591AA3B277
:200EA000B1FBFEF00EFB101443EA044408FB00F8A04507D92C1900F1FF3302D2A04500F223
:200EC000B6801846A4EB080440EA0C409FE7C7F1200CBB4022FA0CFE4EEA030E01FA07F4A3
:200EE00020FA0CF521FA0CF34FEA1E482543B3FBF8F92C0C08FB19331FFA8EFA44EA03437B
:200F000009FB0AF49C4202FA07F200FA07F10BD91EEB030309F1FF3080F087809C4240F267
:200F20008480A9F1020973441B1BADB2B3FBF8F008FB103345EA034400FB0AFAA24508D9A3
:200F40001EEB040400F1FF336BD2A24569D90238744440EA0940A0FB0289A4EB0A044C453E
:200F6000C2464B4654D351D0002E69D0B1EB0A0564EB030404FA0CFCFD40FC404CEA050569
:200F8000C6E90054002747E7C2F1200320FA03F7954001FA02F021FA03F34FEA154E384325
:200FA000010CB3FBFEF71FFA85F80EFB173341EA034107FB08F38B4204FA02F407D969180A
:200FC00007F1FF3C2FD28B422DD9023F2944CB1A81B2B3FBFEF00EFB103341EA034100FBF2
:200FE00008F38B4207D9691800F1FF3C17D28B4215D902382944C91A40EA07473BE7374657
:20100000304609E70746E7E61846FBE64145ABD2B8EB020A69EB0E0201381346A4E7604638
:20102000E9E7184695E76746D1E781467CE702382C4447E7ACF1020C2B442FE7384608E702
:201040003746E9E603685A004CBF43F0004323F000431844704700BF61B32DE9F84F01F173
:20106000FF3A90460646D146002707EB090404EBD4746410E50071190846FFF7E3FFA245B1
:20108000834605F10800304409D0FFF7DBFFC34500F1FF3005D8404509D2671CE5E7C345B0
:2010A00005D9A74202D004F1FF39DEE700210846BDE8F88F08467047012807D0022807D004
:2010C000044B00280CBF1846002070470248704702487047A5170008A9170008AD1700083F
:2010E00030B5254B83B004468D1E4BB301A92846AFF30080F0B101992A46FFF7ADFF0146A7
:20110000C0B1FFF79FFF4B68A064012B2ED0002B01F1040026DBFFF795FF0023C4E9130357
:201120000368002B12DBFFF78DFF00232061184603B030BD002323610923184603B030BD37
:201140000E490F48091AC9100191D5E7C3F30360FFF7B2FF002814BF0023092320611846AE
:2011600003B030BD0123C4E91303D9E7002323610523184603B030BD000000004C8803087C
:20118000FC7C03080368DA0710B5044606D49B0700F1480009D500F05FFC2368590709D5CA
:2011A0001A070ED5DB0613D510BD00F04DFC23685907F5D404F1D00000F056FC23681A07F5
:2011C000F0D404F5A87000F057FC2368DB06EBD404F5E870BDE8104000F092BC036803B129
:2011E00003441846704700BF09207047704700BF70B504460D4608E02B6C63612A4623697D
:20120000214601209847082808D1296C2046FFF767FF06460028EFD023F064F90728FBD169
:201220003046296CFFF7E2FF281D00F001FC00BF2DE9F0470C1D054617460FCCADF5727D51
:2012400003AE0FC60FCC0FC60FCC0FC694E80F0002ACD5F80C80D5F8189086E80F00002301
:20126000236021E0236C6B614FF4F07221467AA823F0AAF92B697AAA294630469847889B0C
:20128000CDE900498246636431462B462A460120C0470746F8B94FF4F0727AA9204623F001
:2012A00093F9BAF1080F1CD1216C2846FFF718FF002F08BF0926074618BF0A260028D1D0A9
:2012C000A36B46F01001CDE900492A46636401202B46C04700B1092738460DF5727DBDE8F5
:2012E000F087BAF1070FF6D13846216CFFF77EFF03A800F09DFB00BF406C7047F0B5CB6B41
:201300000B640D1D0F4606460FCDF9B001AC0FC40FCD0FC40FCD0FC495E80F004FF0FF3531
:2013200084E80F00009506E033696A46314698470828044608D110993046FFF7D1FE0028B6
:20134000F2D0092079B0F0BD6846FFF71BFF062CF7D139463046FFF74BFF00BF30B4DD6BF4
:20136000C160826119461D64002230BC60E700BF70B5C66843690B64BEB903690A4604468A
:201380000D46014602209847072807D0082803D129462046FFF72CFF23F0A4F83046296CF8
:2013A000FFF724FF281D00F043FB0122FFF740FF23F098F8C2681AB1CA6B0A64002237E7CE
:2013C0009CE700BF704700BF836813B10146012018477047042907D8DFE801F0030806084B
:2013E00008000BB90F2A03D9022070470120704700EB820218465368009A1360704700BF50
:2014000010B584B0002303AC0A4600941946FFF7E1FF039804B010BD042907D8DFE801F008
:201420000308060808000BB90F2A03D9022070470120704700EB8200009A12684260184680
:20144000704700BF10B584B004AC002344F8042D0A4600941946FFF7DFFF04B010BD00BF86
:20146000F0B5D36B1364151D07460E460FCDADF50F7D17AC0FC40FCD0FC40FCD0FC495E8C4
:201480000F004FF0FF3584E80F00169510E016A8FFF7D8FF314616A8B84716AA694678B955
:2014A000049B08209847052804460AD0092807D026996846FFF714FE6A460C210028E6D0FD
:2014C000092416A8FFF75EFE20460DF50F7DF0BD2DE9F04F0D46C96C89B00C1D164600F0A3
:2014E000030B0A6806941F46002B68D0130CD9B212048DF81D30022304EB810405928DF8C3
:201500001C302B6DBBF1020F08BFAC6B13F0010346D1019300F008030093D4F80090B9F106
:20152000000F00F0F380022F45D0B4F80090B4F802800434AB6C28F0010A0F2130469A4493
:20154000FFF75EFF824534D829F001035344834294BF002001204FEA480808F0020809F0D4
:20156000010948EA0908B8F1010F3AD031D3B8F1020F1AD1236823F0004ABBF1000F66D1D8
:2015800030B1009A002A6CD0BAF1000F00F09080002B00DA04340AF1010304EB8304BCE75B
:2015A000304605A900F046FB78B1092009B0BDE8F08F0020CFE7D4F804800834BAE7120290
:2015C00003230592ADF81C309BE7082009B0BDE8F08FBBF1000F02D0002840F0B480043485
:2015E0009BE7BBF1000F18D1A8B1D4E90023991C4FEAD272D9D005F158010133049100F0A9
:20160000B580201DFFF7EAFD04AB0146284622F089F9002867D108347FE70D213046D5F810
:201620002080FFF7EDFE8045F5D1AB6A9C42F2D12046FFF707FD0F2102463046FFF702FFA3
:2016400030462A460021FFF7FDFE0720AEE70D213046D5F82080FFF7D3FE804532D02368AC
:2016600096E7BAF1000F23D005F1580304F10408CDF808B0DDF800900397A3461C4602E045
:201680005745B94640D040460494FFF7A7FD04AB01460022284622F045F909F1010708F116
:2016A00004080028ECD0D1455C46DDE902B7D6D130460D21FFF7A4FE049B2862C5E909340C
:2016C000062073E7AB6A9C42C9D104224FF00008A318C5E90AA8C5E90C23236843454DDB5D
:2016E0000123019357E780460D213046FFF788FEB8F1020F28623ED12B46049A43F82C2F16
:201700006B62AC62062051E75C46D1E705A9304600F090FA00287FF448AF019B002B3FF40C
:2017200054AF0F213046FFF76BFE0E2102463046FFF788FE30461A4A0F21FFF783FE072090
:2017400009B0BDE8F08F2046FFF77CFC04340746AC63284622F044F900283FF426AF3046E1
:201760003A460F21FFF76EFE07201FE730460D21FFF746FE2862049B6B62C2E70AF10100B1
:2017800004EB8000FFF75EFC0F2102463046FFF759FE30462A464146FFF754FE072005E787
:2017A000C1370208002393E6012391E602238FE62DE9F0410546C4B0042906D8DFE801F08D
:2017C0004D2B05030900032B5FD0022044B0BDE8F081002BF9D1102AF7D82B68DC0600F193
:2017E000F48022AC2046019200F094F9A86B019A0023012606FA03F1114203D0016844F87A
:20180000231004300133042BF4D1A863204600F077F90020DAE7012B4FEA124697B252D05F
:20182000052BD2D106EB0708B8F1200FCDD80F2E40F29980B846002F40F0DB80AA6BAA63F6
:201840000F2E40F2BE80B8F1000F02D002A800F00BF9002044B0BDE8F081002BB5D1AC6BC1
:2018600097B2281D012606FA03F1394203F1010302D0216801600434102B00F10400F2D165
:2018800012F40050E5D1AC63A0E7160C97B2F319102B9AD82B681A075DD422AC204600F079
:2018A0000DF904EBC601AB6B3FB103EBC702186841F8040B04339342F9D12046AB6300F0AD
:2018C000DBF8002082E7F219102A3FF67EAF0F2E3FF67BAF2A68D10708D5284622F003029D
:2018E00040F8482B019300F0B3F8019B019322AC204600F0ADF8A96B019B002F00F0958031
:201900007F0004EBC6044FF00008043C01EB870251F8040B44F8040F9142F9D1B8F1000F97
:201920000FD002AC102E314638BF102104EBC101843902EBC80452F8040B41F8040F94429B
:20194000F9D1012B7FF47BAF22AC0432AA63204600F07AF87DE723F008032B6005F5A870FC
:2019600000F0ACF899E7B8F1100F2A6843D9D007A8F110080BD5284622F0010242F00202BC
:2019800040F8482B019300F06BF82A68019B510725D40F2E04D822A8019300F061F8019BDA
:2019A000019302AC204600F063F8C6F110010029AA6B019BB6DD22AC4F0004EBC6041146D2
:2019C000A3E722A800F048F83DE723F010032B6005F5E870019200F09DF8019A01E7284653
:2019E00022F0040240F8D02B019300F041F8019BCFE72A68CBE7D0070AD5284622F0010210
:201A000042F0020240F8482B019300F029F8019B019322AC204600F023F8B846A96B019B23
:201A2000002F7FF46DAF0A4609E70A468DE700BF00F1340191E838009C46A6464CF8045DDB
:201A400090E8FF0FE54600BD90EC210B704700BF80EC210B704700BF90EC200B704700BFCF
:201A600080EC200B704700BFD0EC200B704700BFC0EC200B704700BFF0EC0201F0EC0211E1
:201A8000F0EC0221F0EC0231F0EC0241F0EC0251F0EC0261F0EC0271F0EC0281F0EC02918E
:201AA000F0EC02A1F0EC02B1F0EC02C1F0EC02D1F0EC02E1F0EC02F1704700BFE0EC0201F7
:201AC000E0EC0211E0EC0221E0EC0231E0EC0241E0EC0251E0EC0261E0EC0271E0EC02814E
:201AE000E0EC0291E0EC02A1E0EC02B1E0EC02C1E0EC02D1E0EC02E1E0EC02F1704700BF87
:201B0000B0FC0181B0FC0191B0FC01A1B0FC01B1704700BFA0FC0181A0FC0191A0FC01A1AD
:201B2000A0FC01B1704700BFEC4600B52DE900502DE9FF1F4FF000032DE90C0001A9FFF75C
:201B4000DDFBDDF840E012B0704700BFEC4600B52DE900502DE9FF1F4FF000032DE90C009B
:201B600001A9FFF705FCDDF840E012B0704700BFEC4600B52DE900502DE9FF1F4FF00003D4
:201B80002DE90C0001A9FFF715FCDDF840E012B0704700BFEC4600B52DE900502DE9FF1FC4
:201BA0004FF000032DE90C0001ABFFF7D7FBDDF840E012B0704700BFEC4600B52DE90050D3
:201BC0002DE9FF1F4FF000032DE90C0001AAFFF747FCDDF840E012B0704700BF027A82B9A5
:201BE000437AABB14268013B10B4437213680321141D01721A02446002605DF8044B180E3E
:201C000070470368013A02721A020260180E7047B020704700B585B003AA00230092194666
:201C20000C22FFF7D7FB039805B05DF804FB00BFF0E700BF2DE9F043054685B00E464FF059
:201C400000083046FFF7CAFFB028044600F0B180070620D500F0F003802B65D0902B36D07E
:201C6000A02B78D0B02B47D0C02B00F08A8000F0F803D02B0BD100F00702013242F4002234
:201C8000052301212846FFF793FD0028D9D0092005B0BDE8F0830DF10C0900231946870023
:201CA000CDF800900D222846FFF794FBFFB2039BCDF80090043760064CBFDF1BFF18002329
:201CC00019460D2228460397FFF7A6FBB9E700F00D030D2BDBD003AF002300F00F0219461F
:201CE00000972846FFF776FB0023009719460D222846FFF791FBA4E7B1285FD0B22800F0E3
:201D0000CC80B3287ED000F0FC03B42BBFD000F007020132012342F4002219462846FFF786
:201D200047FD00288DD0B2E73046FFF757FF24020443B4F5004FAAD024010023A2B21946A5
:201D40002846FFF735FD0028A1D114F4004F18BF4FF0010875E7C24302F007034FF47F625C
:201D60001A41010702F47F624FF0000348BF42F4804219462846FFF71BFD00283FF461AFA2
:201D800085E7C62851D0C7285AD000F0F803C02B69D0C82875D0C9287FF479AF3046FFF773
:201DA0001DFF020300F00F0002F470220130024366E7B8F1000F14D0002069E73046FFF740
:201DC0000DFF00283FF463AF10F0F0037FF45FAF024619462846FFF7EBFC00283FF431AFE9
:201DE00055E703AC43460E22414600942846FFF7F1FA0094284643460F224146FFF70CFB95
:201E0000404645E73046FFF7E9FE010300F00F0001F47021421C01230A4328461946FFF7A2
:201E2000C7FC00283FF40DAF31E73046FFF7D6FE010300F00F0001F47021421C0323EBE791
:201E40003046FFF7CBFE024600283FF420AF10F0F0037FF41CAF04212846FFF7A9FC002854
:201E60003FF4EFAE13E700F00F020132032342F4202219462846FFF79BFC00283FF4E1AE82
:201E800005E73046FFF7AAFE00F0F00200F00F031032013343EA0232F2E600230DF10C0979
:201EA0000D221946CDF800902846FFF793FA3046FFF794FE02064FF002070CD5039B00F091
:201EC0007F00B840034430460393FFF787FE030607F10707F2D4039BCDF8009000F07F0482
:201EE00003F50172BC400023144419460D2228460394FFF791FAA4E610B5C36C84B05A6878
:201F000003208DF80C00DC798DF80D4012020833084601A901920293FFF78CFE04B010BD76
:201F200008B5FFF785FE806C08BD00BF08B5FFF77FFEC06CC37900EB8300083008BD00BF39
:201F400008B522F0CFFA00BF08B5FFF7F9FF00BF704700BFF1EE103A43F08073E1EE103AE2
:201F6000704700BF074AD3684FF6FF010B40000243F0BF6300F4E06043F400330343D36061
:201F8000704700BF00ED00E0184BDB68C3F3022330B4C3F10705042D03F1040428BF04259C
:201FA000062C19D9033B4FF0FF349C4022EA04044FF0FF32AA4021EA020101FA03F22243A0
:201FC00012010028D2B20ADB00F1604000F5614080F8002330BC704700242346E8E7044B4D
:201FE00000F00F0003441A7630BC704700ED00E0FCEC00E000F01F0101234009024A8B403F
:020000040800F2
:2020000042F82030704700BF00E100E04309203300F01F000122034902FA00F041F823009A
:20202000704700BF00E100E00138B0F1807F0ED2084B10B4084C5860F02084F823000022BC
:20204000072110469A6019605DF8044B70470120704700BF10E000E000ED00E0044A136837
:2020600004280CBF43F0040323F004031360704710E000E038B5134602250A46C0E906337C
:20208000C0F8F451002102F003FC002038BD00BF08B513460A46002102F0FAFB002008BD0A
:2020A00038B5134603250A46C0F80831C0F80C31C0F8F451002102F0F9FB002038BD00BFA4
:2020C00008B513460A46002102F0F0FB002008BD08B504220023C0F8F42119461A4602F033
:2020E000D7FB002008BD00BF08B505220023C0F8F42119461A4602F0D9FB002008BD00BF6D
:2021000030B5014689B000222D20FFF73DFF2D20FFF770FF0025164B02951A6C154C42F4CD
:2021200080721A641B6C03F4807301A9029303A8029B05F0F7FA05F0D5FA0F4A0F49256156
:202140004300A2FB03239B0C013B40F2E7322046C4E901352160E26008F018FA10B1012053
:2021600009B030BD204607F069FF09B030BD00BF00380240B4C5002083DE1B43002000405D
:2021800000287CD038B590F820300446002B73D02268136823F00203136004F0FBFC054688
:2021A00004E004F0F7FC401B0A285CD823685A689107F6D41A6842F001021A6004F0EAFCD9
:2021C000054604E004F0E6FC401B0A284BD823685A68D207F6D5227E012A1A680CBF42F00F
:2021E000800222F080021A60627E012A1A680CBF42F0400222F040021A60A27E012A1A68E8
:202200000CBF42F0200222F020021A60E27E012A1A680CBF22F0100242F010021A60227F96
:20222000012A1A680CBF42F0080222F008021A60627F012A1A680CBF42F0040222F00402AB
:202240001A60D4E90221D4E904500A4361682A43024301390A4301250021DA610846616231
:2022600084F8205038BD636A052243F400336362012084F8202038BD04F05CFF88E70120A9
:20228000704700BF90F82030012B09D090F82030022B05D0436A43F480234362012070470D
:2022A0003B4BD3F8002242F00102F0B4C3F80022D3F8002222F47C52C3F80022D3F800225A
:2022C000486A42EA0022C3F800224A69D3F81C5201209040C4432540C3F81C52CD69002D4C
:2022E00039D1D3F80C522540C3F80C52D200CF688D888E680B8802F1804202F5C84245EAA1
:20230000074543EA0643C2F84052C2F844328B691F4A002B35D1D2F804322340C2F804329E
:202320000B693BBB1A4BD3F814221440C3F814420B6A012B05D1164AD2F81C321843C2F864
:202340001C02134AD2F8003223F001030020C2F80032F0BC7047012DD9D1D3F80C52054337
:20236000C3F80C52D20002F180420F688D888E688B89C2E7064AD2F814320343C2F81432D8
:20238000D6E7D2F804320343C2F80432C8E700BF0064004038B590F82030012B05D0436AC5
:2023A00043F400234362012038BD0268022380F82030136823F001031360044604F0EAFB89
:2023C000054604E004F0E6FB401B0A2807D823685B6813F00103F5D16362184638BD636A8D
:2023E000052243F400336362012084F8202038BD38B590F82030022B05D0436A43F4801377
:202400004362012038BD0268136843F001031360044604F0BFFB054604E004F0BBFB401B46
:202420000A280CD823685A68D207F6D51A68012122F002021A60002084F8201038BD636AD3
:20244000052243F400336362012084F8202038BD70B490F82040012C0AD090F82040022C2B
:2024600006D0436A43F480234362012070BC70470468A5686D012DD5A0680125C0F301602B
:2024800085401D608B688BBB0E68CD6800F118031B0145EA4655E5500D7D096900012318B7
:2024A000012DC3F8841105D1D3F8841141F48071C3F8841104445168C4F88C111268C4F862
:2024C0008821D3F8802142F001020020C3F8802170BC7047A5682E01CED4A568ED00CBD4DC
:2024E000436A43F4001343620120BFE7CD684E682B4300F118052D0143EAC6036351CBE788
:2025000090F82030012B05D090F82030022B01D000207047036898689A689B681201C0F3FF
:20252000806048BF0130DB00F3D50130704700BF2DE9F041044690F8200001280AD094F871
:202540002000022806D0636A43F4802363620120BDE8F0812668002956D1F068850763D0C3
:2025600008013518D5F8B07107F004079760002F55D0D5F8B071FF085760D5F8B0E1D5F8F3
:20258000B4C1D5F8B471D5F8B4510644CEF3400ED6F8B881C7F307270CF00F062D0CC2E9C5
:2025A00003E6C2E9055783F8008022680244D2F8B821120A5A7022680244D2F8B821120C46
:2025C0009A7022680244D2F8B821120EDA7022680244D2F8BC211A7122680244D2F8BC219B
:2025E000120A5A7122680244D2F8BC21120C9A7122681044D0F8BC21120EDA71D9B10129B2
:2026000021D00020BDE8F0810129A9D130698007A6D1636A43F400130846636298E7D5F8E2
:20262000B0717F0D1760A8E7636A43F4001363620120BDE8F0812268D36843F0200308466B
:20264000D360BDE8F0812268136943F02003136100207DE790F82030012B05D090F820302C
:20266000022B01D000207047036819B1186900F003007047D86800F00300704790F8203063
:20268000012B09D090F82030022B05D0436A43F48023436201207047026853691943516123
:2026A0000020704790F82030012B09D090F82030022B05D0436A43F4802343620120704788
:2026C0000268536923EA010151610020704700BF2DE9F84F03685C69D3F804809F68D3F8CF
:2026E0000CB0D3F81090D3F818A014F00106054620D017F001060DD00122B9079A6000F131
:20270000C7807A0700F1C88017F0080600F0DE804FF48056FB050BD52B684FF48072B805D7
:202720009A6000F1B180790540F1BE8046F40056FB0376D4230702D51BF0100F6BD16707E3
:2027400003D51BF0080F40F09480A00703D52B68DB68990777D1620602D519F0100F54D172
:20276000A30602D519F0080F66D1E70603D52B681B6998076BD1A10302D518F0100F6AD1EE
:20278000E20302D518F0080F6CD1230434D518F0040F2B682ED0E70504D51AF0010F18BF8F
:2027A00046F00106A00504D51AF0020F18BF46F00206610504D51AF0040F18BF46F00406BB
:2027C000220517D51AF0700A14D0BAF1300F00F087806ED9BAF1500F7FD0BAF1600F00F0F3
:2027E0008280BAF1400F01D146F040069A6922F070029A6104225A602EB16B6A1E436E6248
:20280000284620F0D2F9BDE8F88F2B68102246F480661A61A4E72B68102246F40076DA60A9
:202820008DE72B684FF48032B8039A6028D4790335D546F400467DE72B6808221A612846DB
:2028400020F0B0F991E7284620F09EF983E7284620F0A7F98FE72B6810225A60284620F037
:20286000A2F98DE72B6808225A60284620F09CF98BE72B680822DA60284620F091F964E703
:20288000284620F07DF955E7284620F078F94FE720F074F900263DE74FF400663AE73A0315
:2028A00010D546F4803645E73A0512D546F480463EE7BAF1100F19D0BAF1200F96D146F0A2
:2028C000100693E7284620F05EF933E720F059F920E7284620F056F92AE746F0800685E70A
:2028E00046F0200682E746F480767FE746F008067CE700BF406A704790F82030012B09D0D9
:2029000090F82030022B05D0436A43F48023436201207047002343621846704784B038B5DB
:202920000A9D05AC012D84E80E00044623D1836B119A23F480338363C36823F4840323F034
:202940004003C360C368012A23F44013C3601CD0204600F035FC089B012B07D1A36843F0D6
:202960000603A360A36843F02003A360BDE83840002004B07047C36843F04003C36000F08B
:202980001FFC4FF48033A363E5E7C36843F48013C360DDE702460020936843F001039360EB
:2029A000704700BF02460020936823F001039360704700BF08B5C368012923F0C043C36073
:2029C00009D019B9C36843F08043C360322004F0E7F8002008BDC36843F00053C3603220D8
:2029E00004F0DEF8002008BD84B02DE9F04107AC84E80E00119D0A9E836B8C46002D40F00D
:202A0000878043F4001383630023C0F8003E0C9BD0F80028C0F80028012B00F5006700F077
:202A20008A80D0F8003843F00303C0F800384FF484630361474B01E0013B02D00269910652
:202A4000FAD410230361434B01E0013B02D00269D206FAD400224FF0FF333A617A61BB615E
:202A6000FA61BCF1000F2CD0144600F510634FF090484FF0FF0E196801320029B4BFC3F813
:202A800000801C6062451C61C3F808E003F12003F1D100218C4600F530634FF090484FF0C9
:202AA000FF0E1C680131002CB4BFC3F80080C3F800C09142C3F810C0C3F808E003F12003E6
:202AC000EFD13B69012E23F480733B6124D000226FF08043826143611EB9836943F01003F5
:202AE000836181691C4B0D9A0B4383611AB1836943F008038361012D05D1836943F0804309
:202B000043F004038361BDE8F041002004B0704743F40023836377E7104B3B633B6B43F4C2
:202B2000803343F003033B6300226FF08043396B82614361D5E7099B23B9D0F80038C0F8A8
:202B4000003874E7D0F8003843F00103C0F800386DE700BF400D030000383C8000018000E3
:202B6000890141F020010161054A01E0013A05D0036913F02003F9D118467047032070478C
:202B8000400D030000F50062D0F8080810F0060012D0936803F00603022B0CD0936803F0E0
:202BA0000603062B07D0936803F00603042B14BF0020022070470320704700BF70B44E788F
:202BC0000A780123012E03FA02F34FEA421400F5006518D0EA6900F5306042EA0343EB61C7
:202BE00003591B040CD48A68CD780159C2F30A0242F0805343F4004343EA85430B43035112
:202C0000002070BC7047EE699BB2334300F51060EB6103591D04F3D48B68CD780159C3F35A
:202C20000A0343F0805343F4004343EA854343EA82520A430251002070BC704730B44A78C8
:202C40000C78012A4FEA441325D000F530614FF00065CA5822F40042CA504FF08042CD5064
:202C6000CA501944234A01E0013A3FD08B6813F01003F9D100F50062516841F4806151609B
:202C80004FF48030D16900FA04F421EA04041846D46130BC704700F510614FF00065CA58A0
:202CA00022F40042CA504FF08042CD50CA501944104B01E0013B19D08A685500FAD44FF454
:202CC000846303610B4B01E0013B02D002699206FAD4012303FA04F4D0F81C38A4B223EAFB
:202CE0000404C0F81C48002030BC7047032030BC704700BF400D03002DE9F04F4D7891F875
:202D000000C04B6991F803E0012D4FEA4C164AD000F5306C0CEB06048D682769FF0CFF04CB
:202D20002761276927F0FF5727F4C017276183B3654FD4F810802B44013BB3FBF5F307EA1C
:202D4000C34747EA08079BB2276105FB03F52369C5F312051D432561012A04BFCB68636136
:202D6000BEF1010F0CD1D0F8083813F4807F5CF806300CBF43F0005343F080534CF806304E
:202D80005CF8063043F004434CF806300020BDE8F08F2369C5F312051D432561236943F46D
:202DA00000232361D8E700F5106808EB0604DBB3D4F81090D1F808B0434F4FEAD9494FEAA2
:202DC000C949C4F81090D4F8109029F0FF5929F4C019C4F81090D4F810A00BEB030909F1DE
:202DE000FF39B9FBFBF907EAC94747EA0A072761D4F81090C3F3120747EA0907BEF1010FED
:202E0000276151D0012A5CD0D0F8343805FA0CF51D43C0F8345858F8063043F0044348F89A
:202E200006300020BDE8F08F256925F0FF5525F4C0152561256945F4002525612569ED0CB4
:202E4000ED04012A256129D0BEF1010FE3D1D0F8084814F4807F58F806400CBF44F000545C
:202E600044F0805448F8064058F8064044F0044448F80640002A89D19BB203339A0885D02E
:202E8000CB6800F5805003EB820200EB0C3C53F8041BCCF800109342F9D177E70F6967611A
:202EA000BEF1010FB7D1D2E7256925F0C04525612569012A45F000552561C8D10D69656146
:202EC000C5E70B696361A6E70000F81F4B78F0B50C784F69012B4FEA441525D000F530608E
:202EE00043198C681E69F60CF6041E611E6926F0FF5626F4C0161E61A7B91E6946F40026D8
:202F00001E611E69012AC4F3120408BFCA6844EA06041C6108BF5A61435943F004434351D9
:202F20000020F0BD4C61E8E700F510667319BFB3D3F810C0D1F808E04FEADC4C4FEACC4CE1
:202F4000C3F810C0D3F810C02CF0FF5C2CF4C01CC3F810C0D3F810C0BE454CF4002C38BF4C
:202F6000C1F814E0C3F810C0D3F810C038BF7746C7F3120747EA0C071F617759012A47F001
:202F80000447775120D04B69002BC9D0D0F83428012303FA04F41443C0F834480020F0BD21
:202FA0001F6927F0FF5727F4C0171F611F6947F400271F611F69FF0CFF041F617759012A2F
:202FC00047F004477751DED10A695A610020F0BD10B49DF804406CB903339B080AD000F593
:202FE000805000EB023201EB830351F8040B10608B42FAD100205DF8044B704703329208C6
:203000000DD010B401EB820200F580540846236840F8043B8242FAD15DF8044B704708464E
:20302000704700BF4A780B78012A4FEA43130ED000F53060C258002A03DBC25822F08042A8
:20304000C250C25842F40012C2500020704700F51060C258002AF0DAF3E700BFCB780A7842
:20306000497801290CBF00F5106000F530605201023B8158DBB221F40011012B815003D8BC
:20308000835843F08053835000207047D0F8003823F4FE63C0F80038D0F80038090101F43E
:2030A000FE611943C0F800180020704700F5006208B5536823F002030320536003F070FD91
:2030C000002008BD00F5006208B5536843F002030320536003F064FD002008BD4269806961
:2030E00010407047D0F8183800F50060C0691840000C7047D0F8183800F50060C06918402A
:2031000080B2704700F5306303EB411100F500608A6840691040704710B4D0F81048D0F85B
:20312000343800EB411000F51060CB40DB01DBB28068234318405DF8044B7047406900F074
:2031400001007047D0F8003923F4FF6323F0070300F50062C0F80039936803F00603042BB2
:2031600005D1D0F8003943F00303C0F80039536843F4807353600020704700BF10B4002438
:20318000C0F8104BD0F8104B44F40024C0F8104BD0F8104B44F01804C0F8104BD0F8104BE1
:2031A000012944F0C044C0F8104B05D14FF08021C0F8142BC0F8001B00205DF8044B70479F
:2031C0000B4B01E0013B10D00269002AFADA0369074A43F00103036101E0013A05D003697E
:2031E00013F00103F9D1184670470320704700BF400D030030B589B00023702501240C22D7
:2032000001A9CDE90154CDE90333CDE90533079307F078FB09B030BD70B5174A174B13601A
:203220008CB04FF6FF710023012504240326D160104603A9C2E901331361049306930893B2
:203240000A9303960595099507940B9407F00EFA68B9002301A90848CDE9013300F086FB2E
:2032600018B1F121064801F0AFF90CB070BDEA21034801F0A9F9ECE7A4C600200004004019
:20328000C094020870B5184A184B13608CB04FF6FF710023012504240326D160104603A9B5
:2032A000C2E9013313610493069308930A9303960595099507940B9407F0D8F970B9002334
:2032C00001A90948CDE9013300F050FB20B14FF48971074801F078F90CB070BD40F20B11D8
:2032E000034801F071F9EAE72CC6002000080040C094020810B5224B224A1A6086B000222F
:203300004FF0FF311846D960C3E901221A6107F091F970BB002369461948CDE9003300F0A5
:2033200025FB00BB0A22012000240F230292039002A908221248CDE9044307F025FA60B98D
:2033400002A90C220E4807F01FFA20B14FF49C710D4801F039F906B010BD40F233110A484A
:2033600001F032F9ECE74FF49571074801F02CF9D8E740F22311044801F026F9CAE700BFBF
:2033800068C60020000C0040C094020808B50B4B0B4A1A6042F6031100221846D960C3E9A2
:2033A00001221A6107F0F2F800B908BD40F285110448BDE8084001F007B900BFE0C60020D9
:2033C000001C0040C094020800B503681A4A934283B01BD0194A934202D003B05DF804FBAB
:2033E0000022174B0192196C41F0800119641B6C03F08003019311462C20019BFEF7C4FD7C
:203400002C2003B05DF804EBFEF7F4BD00220C4B0092596C41F0010159645B6C03F0010345
:20342000009311461920009BFEF7AEFD192003B05DF804EBFEF7DEBD00000140001C0040D1
:203440000038024010B50368B3F1804F82B004D0194A934210D002B010BD03F50E33002257
:2034600000921A6C42F001021A641B6C03F001030093009B02B010BD0024104B01945A6C7C
:2034800042F002025A645B6C03F002032246214601932C20019BFEF777FD2C20FEF7AAFDDD
:2034A000224621462D20FEF76FFD2D2002B0BDE81040FEF79FBD00BF0004014000380240CC
:2034C00030B503681A4A934289B01ED0194A934201D009B030BD02F50C3200230293116C23
:2034E000154841F004011164126C059302F004020292029DC024022203A90693CDE903423B
:20350000079207F0CFFC09B030BD02F50D3200230193116C084841F002011164126C059331
:2035200002F0020201923024022203A9019DE4E70004004000080040000402400268144BDA
:203540009A4200D0704730B587B0002403F50B3300941A6C0F4842F008021A641B6C039449
:2035600003F0080300930C22022301A9CDE901230593009D049407F095FC224605213220AE
:20358000FEF702FD3220FEF735FD07B030BD00BF000C00400000024070B50368284A9342F6
:2035A00086B007D0B3F1804F3AD0264A93421CD006B070BD4FF4604301A923480226002426
:2035C0000125CDE90136CDE90344059507F06AFC1E4801A94FF4E063CDE90264CDE9044533
:2035E000019307F05FFC06B070BD8023032501A90226002415480595CDE90136CDE9034460
:2036000007F050FC01A910480595CDE90156CDE9034407F047FC01A94FF4E0730C48DBE731
:20362000002301224FF44065022401A906480592CDE90154CDE9033307F034FC06B070BDA6
:20364000000001400004014000040240000002400008024030B5504B504A1A6095B0002217
:20366000602540F6AC5402211846C3E9025459615A601A6106F08AFF002840F0888014A981
:203680004FF4805341F8483D434806F0A3FD002878D1414806F0B2FF00286ED13E4806F0B1
:2036A00091FF002864D12022002369463A48CDE9002300F05BF9002855D1002370241A4605
:2036C00006A935480694CDE90733CDE90933CDE90B3307F047F9002840D1042206A92E4893
:2036E00007F040F9002834D1082206A92A4807F039F948BB002306A90C222748069307F0F7
:2037000001F9E0B94FF4006000234FF4806514244FF400520D900DA91F481193CDE90E53E6
:2037200013931094129200F047F918B1A4211C4800F04AFF1848FFF72FFF15B030BD982151
:20374000174800F041FFDDE79221154800F03CFFD0E78D21124800F037FFC5E78821104849
:2037600000F032FFB9E77C210D4800F02DFFA4E775210B4800F028FF95E77021084800F0A2
:2037800023FF8BE76B21064800F01EFF81E76521034800F019FF72E71CC7002000000140D0
:2037A000C094020830B5254B00228BB04FF0804560244FF4805118461D60C3E902415A60D9
:2037C0001A6106F01BFF002832D1002301A91B48CDE9013300F0CAF828BB702000230224AB
:2037E000039003A90822154804930793059407F0B9F898B941F20104002303A90C220F48B4
:20380000CDE9044307F0AEF818B1CE210C4800F0DBFE0A48FFF7C0FE0BB030BDC721084853
:2038200000F0D2FEE6E7BE21054800F0CDFED4E7B721034800F0C8FEC7E700BF58C70020D4
:20384000C094020830B53A4B3A4A1A6091B00022602540F6AC5402211846C3E90254596147
:203860005A601A6106F0CAFE00285BD12022002369462F48CDE9002300F078F800284BD1F9
:20388000002370241A4602A929480294CDE90333CDE90533CDE9073307F064F8002835D114
:2038A000042202A9224807F05DF848BB02A908221F4807F057F8E8B94FF4006000234FF452
:2038C000806514244FF40052099009A918480D93CDE90A530F930C940E9200F06DF820B1D0
:2038E0004FF4BA71144800F06FFE1148FFF754FE11B030BD4FF4B4710F4800F065FEDBE77E
:2039000040F263110C4800F05FFECFE74FF4AF71094800F059FEC3E74FF4A971064800F06A
:2039200053FEADE740F24B11034800F04DFE9DE7F0C5002000040140C09402080368042201
:20394000186A02FA01F120EA010018621A6A114319625A6C42F400425A641A6842F001026C
:203960001A600020704700BFFFF7E8BF90F83830012B1ED002460220136870B482F83900D4
:203980005C6824F07004D1E900565C60586828435860986820F08000986099680024012559
:2039A00031439960204682F8395082F8384070BC70470220704700BF90F83830012B21D0B7
:2039C00030B4D1E90253D1E9002423F440732B4323F48063234323F40063D1E9045413439C
:2039E00023F480532B4323F4005389690268234323F440430B430021536430BC80F83810D7
:203A00000846704702231846704700BF704700BF704700BF30B4056812046C6AC9B1AB6AF0
:203A2000013904EB13440CD000231846403005EB800001334068DBB28B4204EB10441846F2
:203A4000F4DB403105EB810114434C60002030BC70471443AC62002030BC7047036800203B
:203A60005962704710B582B000241C4B00941A6B42F400121A631A6B02F400120092009ABB
:203A800001941A6B42F480021A631B6B03F480032246019305210B20019BFEF775FA0B205F
:203AA000FEF7A8FA224605210D20FEF76DFA0D20FEF7A0FA224605210F20FEF765FA0F205C
:203AC000FEF798FA224605211020FEF75DFA102002B0BDE81040FEF78DBA00BF0038024009
:203AE0002DE9F04180460F4616461D46D8F8004001E06B1C0AD1A06837EA00030CBF01203A
:203B000000208642F5D10020BDE8F0813DB103F041F8069BC01AA842E8D3D8F800406368AC
:203B2000D8F8042023F0E003B2F5827F636015D0D8F82830B3F5005F08D123684DF6FF7204
:203B400013402360236843F4005323600122002388F8512088F850300320D5E7D8F80830D9
:203B6000B3F5004F02D0B3F5806FE1D1236823F040032360DCE700BF2DE9F043044685B085
:203B8000012084F85000164699460F460C9D03F001F894F851306268DBB2012B804611D0DC
:203BA000B2F5827F09D002200122002384F8512084F8503005B0BDE8F083A1680029F2D171
:203BC000042BF0D1002F60D0002E5ED0B9F1000F5BD094F851302168012B04BF052384F82D
:203BE000513000236365A4F83E90A4F836900868A6634006A4F83C902763A4F83490C4E9CF
:203C0000103344D5E368B3F5006F45D0002A71D117F8013B0B73E38E013B9BB2E3864FF0FA
:203C20000109E38E9BB21BB9E38F9BB2002B41D0B9F1000F0FD0E38E9BB263B123689A68F6
:203C4000910708D53A781A73E38E013B9BB20137E3864FF00009E38F9BB263B123689A686D
:203C6000D20708D5DB683370E38F013B9BB20136E3874FF001096B1CD3D002F08BFFA0EB92
:203C800008008542CDD803208EE701208CE70B6843F040030B60B5E7002A5CD0E38E9BB280
:203CA000012B58D04FF00109E38E9BB23BBBE38F9BB223BBCDF800802B46012202212046B4
:203CC000FFF70EFF0028DED10246CDF800802B4680212046FFF704FF002844D1A368002B99
:203CE0007FF462AF23680390DA6803929B680393039B59E7E38E9BB2012B90D188E7B9F170
:203D0000000F0FD0E38E9BB263B123689A68910708D537F8022BDA60E38E013B9BB2E386E8
:203D20004FF00009E38F9BB263B123689A68D20708D5DB6826F8023BE38F013B9BB2E38722
:203D40004FF00109681CAFD002F024FFA0EB08008542A9D897E737F8023BCB60E38E013B65
:203D60009BB2E3869EE7636D2022134363650120626519E700283BD090F85120002370B57C
:203D800002F0FF010446836262B31846D4E90135D4E903212B4313436269E569266A0B4300
:203DA0001343A26921682B43022584F85150334302F400750E682B43120C656A02F00402BD
:203DC00003432A4326F040060E600B604A60CB69002223F400630125CB611046626584F896
:203DE000515070BD80F8501000F09EFDA06ACDE70120704790B10268022310B580F851306E
:203E0000136823F040030446136000F017FE0020606584F8500084F8510010BD01207047EC
:203E20002DE9F0410D4690F85010012984B056D01E46012380F850300446904602F0AAFE42
:203E4000074694F85100C0B2012809D002200122002384F8512084F8503004B0BDE8F081A9
:203E6000002DF4D0B8F1000FF1D0A2682563032384F85130B2F5004F4FF000036365A3631D
:203E8000A387C4E91033A4F83680A4F83480E387236803D11A6842F480421A601A685206CF
:203EA00021D5E2686168B2F5006F46D001BB15F8012B1A73E38E013B9BB2E386E38E9BB22A
:203EC000DBB123689A689207F1D436B1731CF5D002F060FEC01BB042F0D30320B7E702206D
:203EE00004B0BDE8F0811A6842F040021A60D8E7E28E92B2012AE1D1D9E700973346012245
:203F000002212046FFF7ECFD0028E6D102460097334680212046FFF7E3FD00282CD1A368F5
:203F200033B922680393D368039393680393039B606D003018BF012089E7A9B1E28E92B202
:203F4000012A11D0E38E9BB2002BD6D023689A68900709D4002EC0D0711CF3D002F01AFEAD
:203F6000C01BB042EED3B8E735F8022BDA60E38E013B9BB2E386E5E7636D20221343636521
:203F80000120626563E700BF10B490F85040012C03D05DF8044BFFF7EFBD02205DF8044B48
:203FA000704700BF38B590F85040012C64D0044690F851000125C0B2A84284F850500DD087
:203FC0006568B5F5827F04D00220002384F8503038BDA568002DF7D10428F5D1002949D029
:203FE000002A47D0002B45D094F851002163012804BF052084F8510000206065E386E38749
:020000040800F2
:2040000094F85150A386042DA387C4E9100007BF1A491B4B1B491C4BE06CA2631B4DC0E976
:204020000F312168E38FC56400250C31056501F09BF92268A06C5368216B43F00103536004
:20404000E38E05640C32C563C0E9135501F08CF923681A68520603D41A6842F040021A60ED
:204060005A6842F020025A605A6842F002025A600020AAE70120A8E7022038BD9940000865
:20408000DD400008A94000082D410008B9400008704700BF704700BF08B5806BFFF7FAFF10
:2040A00008BD00BF704700BF08B5806BFFF7FAFF08BD00BF704700BF08B5836B19684A6897
:2040C00022F003024A605A6D012142F010025A65184683F85110FFF7EDFF08BD08B503682A
:2040E000806B1B68DB050FD4D0E900215368B1F5827F23F00303536009D001230022C2871F
:2041000080F85130436D73B9FFF7C2FF08BD8368B3F5004F02D0B3F5806FEED1136823F0B6
:2041200040031360E9E7FFF7C5FF08BD30B5054683B0846B02F02EFD2B681A6812F48072FE
:204140001BD10090642380212046FFF7C9FC38B1636D43F020036365636D43F020036365D5
:2041600021684B68002223F0030301204B60E286E28784F85100636D23B9204609F01EFA3B
:2041800003B030BD2046FFF795FF03B030BD00BF026830B55568916801F04104012C85B093
:2041A00003465DD0880707D52C0605D55A6C184605B0BDE83040104711F4B07F4ED0A806CD
:2041C0004CD54C060ED593F8510003284FD0586D002440F0040058650094D0680090906835
:2041E0000090009888060CD5586D002440F001005865029490680290106820F040001060F9
:204200000298C90508D5596D002041F0080159650390916803910399596DF9B11C46536832
:2042200023F0E00353600121AB0784F8511012D05368E06C23F00303536018B1104B0365E3
:2042400001F01CF9A06C48B10D4B036505B0BDE8304001F013B92046FFF72CFF05B030BDE3
:204260006C069FD5036C05B0BDE83040184700230193D368019393680193019BEEE700BF7B
:204280008542000808B5836B0022DA871846DA86FFF710FF08BD00BF38B5084C084D2068BC
:2042A0004FF0FF3104F02AFB0028F8D1284601F0BBFB4320FDF79EFEF1E700BFA4C700205B
:2042C000B0C7002008B502F0EFFE0EF0F7FA034B1868BDE8084005F0A5B800BF94C7002075
:2042E00030B5074D0FCD87B001AC0FC42B682360002101A804F028FA024B186007B030BD93
:20430000F8930208A8C7002070B58AB00AA8002440F8284D012104F0DDFA204B204E186059
:20432000214604F0EBFA0AA8012140F8244D04F0D1FA0AAB1B4A43F8204D1060012118464F
:2043400004F0C8FA184B2146186004F0D7FA0AA8012140F81C4D04F0BDFA0AAB134A43F833
:20436000184D10600121184604F0B4FA104B2146186004F0C3FAFFF7B3FF0DF0B7FB0EF006
:2043800029F80FCE05AD0FC533682B60214605A804F0DAF9074B18600AB070BDA4C700205C
:2043A0000C94020898C70020A0C700209CC70020ACC7002094C7002010B5144C144A2368AE
:2043C00093420ED0134A934208D1134B2360134B83F30888124B1B68984723682A2B05D165
:2043E00010BD104B00BF013BFCD1EEE72A232360BFF34F8F0C490D4BCA6802F4E06213432B
:20440000CB60BFF34F8F00BFFDE700BF0006002075FEADDEEFBEADDEEDFEFECA000002204E
:204420000400FF1F00A8610000ED00E00400FA0570B594B00020294A0190116C284B41F0D3
:2044400080511164126C02F080520192019A02901A6842F480421A601B6803F4804302934E
:2044600009224FF48033012002244FF48001042608920993A82207230D9008A8029D0E942E
:204480001294CDE90F161192139302F09BFE00B1FEE74FF4A0524FF4805305900F250521F7
:2044A00003A804940395CDE9062303F07BF8044600B1FEE703F010F94FF47A73B0FBF3F042
:2044C000FDF7B2FD3046FDF7C9FD224629464FF0FF30FDF759FD14B070BD00BF0038024050
:2044E000007000402DE9F8432A4A2B4B12681B682A492B4D4E882B4CDFF8B4C01344190CD5
:20450000180440EA06088946C5E9008904F10C0E25464FEA193000F00F060CEB06074FEA03
:2045200009163B7805F8013B46EA18764FEA081775454FF00001B846B146EAD1217302F02A
:2045400003FBFFF775FF04F0A9FCFFF78BFA01F0ABFE01F0FBFEFFF77DF8FFF773F9FEF799
:204560005BFEFEF78FFE00F0B5F901F041FFFFF719F900F019FCFEF7BDFEFEF707FF0A4887
:20458000FEF738FE0948FEF735FEFFF7BDFE04F0CDF8FEE7187AFF1F107AFF1F147AFF1F24
:2045A00098BE0020A0BE00201CC70020F0C50020F89402080268034B9A4200D0704702F08C
:2045C000DDBA00BF00200040FEE700BF0368B3F1A04F00D0704730B587B04FF4C050002469
:2045E00003220A2301A9019002251048CDE90423CDE9025406F056FC0D4B5A6B42F08002AD
:204600005A6300945A6C42F480425A645B6C03F480432246009305214320009BFDF7B4FC89
:204620004320FDF7E7FC07B030BD00BF0000024000380240F8B5D0F8EC4300F56F7604F5AA
:20464000027705463146384602F09EF994F8083203F06003402B15D194F80932502B11D187
:20466000D4F81432B4F80E229B68C4F8F82101223946C4F8F42120469847B4F80E3203B914
:2046800038B1F8BD3146D5F8EC03BDE8F84000F085BC2046BDE8F840FDF71ABDC1EBC103BD
:2046A00000EB8303D0F8EC03D3F8042200F0A6BCC1EBC10300EB8303D0F8EC035A6C00F041
:2046C000D3BC00BFD0F8EC0300F05ABD10B5C16804460031D0F8EC0318BF012100F03AFD8E
:2046E000D4F8EC03BDE8104000F014BD10B50446D0F8EC0300F032FD2268D2F8003E43F09F
:204700000103C2F8003E236A23B1034A136943F00603136110BD00BF00ED00E0D0F8EC03B3
:2047200000F026BDD0F8EC0300F03ABDD0F8EC0300F034BDD0F8EC0300F034BDD0F8EC0321
:2047400000F032BD02780AB10020704738B5194B0221C3F8EC034FF0A0450624C0F82032F8
:204760001846C3E90422C3E907225A62C3E90B22C3E90054D960996101F0D2F8A0B98021B7
:204780000C48FFF76BF9402200210A48FFF742F9402201210748FFF73DF940220321054893
:2047A000FFF738F9002038BD4FF4AC710248FFF70BFFE4E7B0C700201095020808B5D0F87D
:2047C000200201F01BF9032896BF024B0220185C08BD00BF0C95020810B51C46D0F820020F
:2047E0001346224601F04CFC032896BF014B0220185C10BD0C95020808B5D0F8200201F04D
:204800007DFC032896BF024B0220185C08BD00BF0C95020808B5D0F8200201F0EFFC0328DF
:2048200096BF024B0220185C08BD00BF0C95020808B5D0F8200201F011FD032896BF024B9E
:204840000220185C08BD00BF0C9502080A06D0F8203206D4C1EBC10103EB810191F8FA012D
:20486000704701F07F01C1EBC10103EB810191F83A00704708B5D0F8200201F0EFFB03280B
:2048800096BF024B0220185C08BD00BF0C95020808B5D0F8200201F08DFC032896BF024BC3
:2048A0000220185C08BD00BF0C95020808B5D0F8200201F04DFC032896BF024B0220185CEF
:2048C00008BD00BF0C95020808B5D0F8200201F067FC08BD38B5114B114A1A604FF4827195
:2048E0004FF4006001224FF4007518245960D8600A215A6118460022C3E90654D9629A606C
:204900001A61C3E908229A62FFF734FA00B938BD52210448BDE83840FFF756BEA0CB002007
:20492000003C00402C9502083D4B02689A4200D0704770B586B0002403F5FE3300941A6C19
:20494000384D42F400421A641B6C03F4004300934FF4E053064602220193012332480099D7
:20496000029203930322062301A90492059306F099FAF3682D486C6040214FF48062EC60F0
:204980002860A9602A61002B32D1C5E9053300234FF480322348EB61C5E9082300F010FC43
:2049A000002838D1224CF2682248B56400234FF48061AE6320602161C4E90133E360F2B952
:2049C000C4E9052200234FF480321948E361C4E9082300F0F5FBC8B900220521F46433201A
:2049E000A663FDF7D1FA3320FDF704FB06B070BD4FF400624FF40053C5E90523C7E74FF4C4
:204A000000624FF40053C4E90523DBE79B210A48FFF7DAFDE0E784210748FFF7D5FDC1E701
:204A2000003C0040F8CB0020000802408860024058CC0020106002402C9502080D4B026820
:204A40009A4200D070470C4A136C10B523F40043044613644FF4E051084806F045FBA06C38
:204A600000F048FCE06C00F045FC3320BDE81040FDF7CCBA003C0040003802400008024083
:204A80000A4B1B68013308D04FF0500383F31188BFF36F8FBFF34F8FFEE74FF0500383F364
:204AA0001188BFF36F8FBFF34F8FFEE70000002006480068006880F3088862B661B6BFF316
:204AC0004F8FBFF36F8F00DF00BF000008ED00E0DFF80C00016841F47001016070470000CB
:204AE00088ED00E030B421F001014FF08075074C40F80C4C6FF0020340F8202C40E902152B
:204B000040F8243C30BC4438704700BF814A0008074B19680868B0E8F04F80F30988BFF37C
:204B20006F8F4FF0000080F311887047AFF30080EC0600204FF0500383F31188BFF36F8FF0
:204B4000BFF34F8F0A4A13680133012B136000D07047084B1B6813F0FF0FF9D04FF050035A
:204B600083F31188BFF36F8FBFF34F8FFEE700BF0000002004ED00E0084A136843B94FF049
:204B8000500383F31188BFF36F8FBFF34F8FFEE7013B13600BB983F3118870470000002035
:204BA000EFF30980BFF36F8F154B1A681EF0100F08BF20ED108A20E9F04F10604DF8043D1F
:204BC0004FF0500080F31188BFF34F8FBFF36F8F04F094FE4FF0000080F3118808BC1968E4
:204BE0000868B0E8F04F1EF0100F08BFB0EC108A80F30988BFF36F8F704700BFAFF30080F8
:204C0000EC06002008B54FF0500383F31188BFF36F8FBFF34F8F04F0D7FC18B1034B4FF0C7
:204C200080521A60002383F3118808BD04ED00E0064B07491B680748074AA1FB03139B0946
:204C4000013B072103601160704700BFF4010020D34D621014E000E010E000E0324B334A61
:204C6000196891424ED01A68314B9A4253D010B5304B314C1A78314982B0D2B2FF20019294
:204C800018701B78DBB28DF803309DF803309DF8032003F0500307201206237008600FD5D0
:204CA000062200E002469DF803305B00DBB28DF803309DF803301B0602F1FF30F2D40A6001
:204CC0000B6801981B4C1E4A1B02C0B203F4E0630B602070136843F470031360136843F0EF
:204CE00070431360FFF7A4FF164B00221A60FFF7EFFE154A136843F040431360FFF7D8FE46
:204D0000FFF7BEFE4FF0500383F31188BFF36F8FBFF34F8FFEE74FF0500383F31188BFF3C8
:204D20006F8FBFF34F8FFEE700ED00E071C20F4170C20F4100E400E02406002028060020D2
:204D400020ED00E00000002034EF00E0EFF305830F2B0ED91049114A5B5C12789A4208D906
:204D60004FF0500383F31188BFF36F8FBFF34F8FFEE70B4B0B4A1B68126803F4E0639342B6
:204D800008D94FF0500383F31188BFF36F8FBFF34F8FFEE7704700BFF0E300E024060020F9
:204DA0000CED00E0280600200C4B0D4A10B50C211A604FF4E134002218465C605961C3E9B8
:204DC00002221A61C3E9062202F02AFE00B910BD4E210448BDE81040FFF7F6BB18CD002064
:204DE000004C004040950208394B02689A4200D070472DE9F04387B0002403F5F63300949E
:204E00001A6C344D42F400221A641B6C03F4002300930227012301A94FF003094FF00808F0
:204E200006462D48009A0193CDE90277CDE9049806F038F801A92848CDF81480CDE901773B
:204E4000264FCDE9034906F02DF84FF000614FF480624FF480732846AC60EC60C5E9054408
:204E6000C5E90844C5E900712A61EB6100F0A8F920BB1B4C1B4875634FF0006340214FF4EE
:204E800080622060636020460023AE63A160C4E90332C4E90533C4E90733636200F090F966
:204EA00088B93463002205213420A663FDF76CF83420FDF79FF807B0BDE8F0837F210A487D
:204EC000FFF782FBD5E791210748FFF77DFBE8E7004C0040B8CC0020000002404060024011
:204EE00058CD002070600240409502080D4B02689A4200D070470C4A136C10B523F4002383
:204F0000044613640321094806F0EEF8606B00F0F1F9206B00F0EEF93420BDE81040FDF73B
:204F200075B800BF004C0040003802400000024088B108B5D0F8143213B10023C0F8143254
:204F400009B1C0F810120123027080F8FC31FFF7F9FB002008BD0220704700BF19B1C0F899
:204F60001412002070470220704700BF08B5FFF725FC002008BD00BF08B5D0F814321BB18D
:204F80001B68984700B908BD022008BD08B5D0F814325B689847002008BD00BF38B5044602
:204FA00000F50275284601F0EFFC94F80812B4F80E32C4F8F831012201F01F039342C4F8FD
:204FC000F42115D00ED3022B06D001F080012046FFF720FC002038BD2946204601F06EFCC4
:204FE000002038BD2946204601F0F6FA002038BD2946204601F042FC002038BD10B50446A9
:2050000031B91346D0F8F421032A0DD0002010BDD0F814329B69002BF8D090F8FC21032AA2
:20502000F4D19847002010BDD0F80C11D0F8102191420DD8D0F814321B6923B190F8FC213E
:20504000032A00D198472046FDF742F8002010BD891A8A4228BF0A4692B2C0F80C111946D4
:20506000FDF72EF8D2E700BF70B5044651B91346D0F8F421022A16D094F80032012B0DD016
:20508000002070BDD0F814325B69002BF8D090F8FC21032AF4D19847002070BD002384F89C
:2050A0000032002070BDD0E90762964219D88369B3FBF2F502FB15350DB99A421FD9D4F858
:2050C0001432DB682BB194F8FC21032A01D1204698472046FDF708F894F80032012BCFD19A
:2050E000DCE7B21A0D46C261194692B2FCF7D0FF2B462A4629462046FFF7D8FBBCE7D0F85C
:20510000F8219342DBD22A46FCF7C2FFC4F8F851EEE700BF38B50022044640231D461146C1
:20512000FFF75AFB2B460022C4F8105120468021FFF752FBD4F818322562012284F8FC21D1
:205140002BB1D4F8143221795B6820469847002038BD00BF01740020704700BF90F8FC213B
:2051600080F8FD21042380F8FC310020704700BF0346002093F8FD2183F8FC21704700BF17
:2051800090F8FC21032A01D00020704708B5D0F81432DB6903B19847002008BD0020704737
:2051A000002070470020704708B50121D0F8142280F8FC11526801799047002008BD00BF30
:2051C000F8B5044601F0E6FC002C54D00222236884F835201A68002122F0010284F83410BD
:2051E00005461A6005E001F0D5FC401B05283BD823681A68D107F6D4D4E90126D4E9035104
:20520000324360691F682A43D4E906650A430243216A354832432A430A43616A38400429FB
:2052200042EA000229D01A605A6922F007021143DAB22E485961103AA0FB021212092C4956
:2052400023F47F73895CE16523F00303032A88BF04333F228A4001250021A36508469A6094
:20526000616584F83550F8BD032320226265184684F83530F8BD0120F8BDD4E90B010143AC
:205280000A43A56A1A605A6945F0040122F0070211430028CCD07EB1B6F5005F16D0022DBA
:2052A00003D9032DC4D1C201C2D5012340226265184684F83530F8BD012D03D0F3D3022DBC
:2052C000B6D1F0E7B0F1C07FB2D1EEE7032DAFD801A252F825F000BFAB520008A7520008BA
:2052E000AB520008C55200083F8010F0ABAAAAAA58950208002830D0024690F83500C0B28C
:2053000002282CD0136830B41868154D154CD9B21039A5FB015120F0010018600909002044
:20532000186058609860D860186123F47F70645C20F00300032988BF043021253F215D61B0
:20534000A1400023D465906530BC81601846536582F8343082F83530704701207047704735
:20536000ABAAAAAA58950208F0B490F83440012C39D090F83540866D0125AC4280F83450B7
:205380002BD104680227002580F8357045652568876825F48025402F256063600ABFA260D4
:2053A000A160E160C16D18BFE2603F238B40026CB360236843F016032360636943F08003DA
:2053C00063611AB1236843F008032360236843F0010323600020F0BC7047002380F834302B
:2053E000F0BC022070470220F0BC704770B50446866D01F0CFFB94F83530022B06D08022F0
:205400000023626584F83430012070BD2368216C1A6822F016021A605A6922F08002054694
:205420005A6131B31A6822F008021A601A6822F001021A6005E001F0ADFB401B05280FD8B7
:2054400023681B6813F00103F5D1E16D3F228A400121B260184684F8343084F8351070BD98
:20546000202200230320626584F8343084F8350070BDA26C002AD5D1D8E700BF90F83530D6
:20548000022B03D080234365012070470268052380F83530136823F001031360002070479E
:2054A000F0B583B00023876D0193C36D3D68654908229A402A4204460E6803D0016808680A
:2054C000400759D401229A402A4203D021684969080674D404229A402A4203D02168096852
:2054E000890766D410229A402A4203D02168086800074BD420229A402A4214D02168086813
:20550000C00610D5BA6094F83520052A63D00B6813F4802F0B687ED0190340F18980E36BF5
:205520000BB120469847636D23B3636DDA071AD50523226884F835301368434923F0010373
:20554000A1FB06161360B60A02E01368DB0704D5019B0133B3420193F7D90022012384F85D
:20556000342084F83530E36C23B1204603B0BDE8F040184703B0F0BD086820F0040008603A
:20558000BA60626D42F0010262659BE7BA600A6812F4802F0A6818D1D20503D40A6822F0D6
:2055A00008020A60226C002AA4D020469047E36DA0E7BA60626D42F00402626592E7BA60BC
:2055C000626D42F00202626584E71103EAD5A26C002AEAD18EE70A68206C22F016020A60C7
:2055E0004A6922F080024A6138B30A6822F008020A603F22216D02FA03F300200122BB6097
:2056000084F8340084F835200029B3D0204603B0BDE8F040084713F4807380D10A68012042
:2056200022F010020A6084F8343084F8350076E7636C002B7FF475AF75E7A26C002AD4D124
:20564000D7E700BFF4010020B5814E1B10B4114B1A68824201D21346FAE75C6819198842E6
:2056600003D14168214459601846446801198A4209D1094909688A4205D0D2E90021214420
:205680000260416000E00260984218BF18605DF8044B70473C0600202C0600202DE9F04146
:2056A000044603F07BFF3F480368002B5CD03E4B1D682C4251D1002C4FD004F108035907A1
:2056C0001CBF23F007030833002B46D0374F3E689E4242D336490C6806E0D4F800C0BCF123
:2056E000000F04D02146644662689A42F5D30068A04232D02068D1F800800860D11A10299F
:2057000010D9E018420708D04FF0500383F31188BFF36F8FBFF34F8FFEE741606360FFF767
:2057200095FF626823480168B61A00232A438E42626008F10808236038BF06603E6003F0CB
:20574000E9FF18F0070F0CD04FF0500383F31188BFF36F8FBFF34F8FFEE703F0DBFF4FF095
:2057600000084046BDE8F081134B144A114F104E5D0718BF073322F0070218BF23F0070387
:205780000A4D02601946D31A3B602B60064F0025C2E9005575604FF000450A604B60316065
:2057A0003D6086E72C06002030060020340600203C0600203806002000000010F8FF001006
:2057C000D0B1194A50F8043C1268134208D14FF0500383F31188BFF36F8FBFF34F8FFEE7EF
:2057E00050F8081C49B14FF0500383F31188BFF36F8FBFF34F8FFEE7704723EA020310B5EF
:2058000040F8043C044603F0C9FE084A54F8043C1168A4F108000B441360FFF717FFBDE8A5
:20582000104003F077BF00BF3006002034060020014B1868704700BF380600200020704709
:2058400008B509681CF0D6FF002008BD10B50C4C0C4901232046002203F0A0F92046012221
:20586000094903F0AFF9032320460022074903F095F920460322064903F0A4F9002010BD65
:20588000F4D1002038CE0020B8CD002078CE0020F8CD002021280FD1002310B40120C224F6
:2058A00008224C7088700B700020CB700B714B718A715DF8044B704700207047402925D869
:2058C000144B012A70B5D3F8183207D0032A1FD15C33114E1B7A33B1012070BD44330F4E87
:2058E0001B7A002BF8D10D46144601462A4630461EF06AFE314623462A46064803F04EF9F7
:2059000021460448BDE8704003F06CB902207047022070BDF4D1002078CE002038CE0020CE
:20592000002868D0F0B5032305468BB080F8B9330446FEF74BFE2868FDF734F854F810CBF3
:2059400027460FCF6E460FC60FCF0FC697E8030086E803002E1D96E80E006046FCF7DEFF80
:2059600000212868FDF726F8002108462B462A46012782F83810D18701310F2982F8397045
:2059800082F83B00C2E91000D06402F11C02F0D100222F68114602F1400083F8F821DA8759
:2059A00007EB800001320F2A83F8F91183F8FB11C3F80012C3F80412C3F80C1203F11C0373
:2059C0004160E8D10FCCEC46ACE80F000FCCACE80F0094E803008CE80300384696E80E003F
:2059E000FDF702F8012385F8B9332868FDF76AFB00200BB0F0BD0120704700BF90F8B833B1
:205A0000012B0ED010B50123044680F8B8330068FDF74CFB2068FCF7BDFF002084F8B803B5
:205A200010BD0220704700BF2DE9F04F066887B004463046FDF782FB10B107B0BDE8F08F3A
:205A400005462068FDF74AFB0028F6D02068FDF745FB10F0020F20681EBF436903F0020376
:205A60004361FDF73BFB10F40027206840F0AA81FDF734FB430300F1F180D4F800B0584665
:205A8000FDF72CFB0028C0F216822068FDF726FB000548D42068FDF721FBC20472D420688F
:205AA000FDF71CFB10F4005F206840F0B080FDF715FB10F0100F206811D0836923F01003F2
:205AC0008361356AC5F34343022B05F00F0839D0062B00F03182836943F010038361FDF7E5
:205AE000FDFA030700F1BC812068FDF7F7FAC60200F1AC812068FDF7F1FA850200F1B9810B
:205B00002068FDF7EBFA400000F19F802068FDF7E5FA410791D523685D686A070DD45A6867
:205B20002A435A6089E7D6F80838D90726D42068436903F400634361ADE72046FEF7FEFDCA
:205B40002368ECE747F6F0731D42C4D0C8EBC80804EB8808C5F30A152A463046D8F80412AF
:205B6000FDF74CFAD8F80422D8F8103220682A442B44C8F80422C8F81032ACE72046FEF7A8
:205B8000B5FDD4E706F50068D8F80430206823F001031021C8F80430FCF7E2FF606850B1D0
:205BA00006F51063FF22013585429A60C3F8082203F12003F7D14FF0FF33C8F81830D8F852
:205BC0001C30226B43F00113C8F81C30002A00F08981D8F8843043F00B03C8F88430D8F86C
:205BE000443043F00B03C8F84430D6F80038217C206823F4FE63C6F8003804F56F72FDF755
:205C0000BDFA2068436903F48053436148E7FDF799FA2068C36823F47053C360FCF7B2FF21
:205C2000002840F06C812268E060D3684FF4007143F410536161D3602046FEF747FD2068B0
:205C4000436903F40053436131E72046FEF772FD2068436903F08043436158E72068FDF77F
:205C600049FA8146002800F08581D4F800B0049506F51063CDE90236A24600275E4607E0F1
:205C80005FEA590907F101070AF11C0A00F00F8119F0010FF4D05FFA87F830464146FDF712
:205CA0003BFAC607054640F1FA80039B2069012202FA07F1D3F8342822EA0101029AC3F822
:205CC000341802EB47121346012290429A6004D1DAE910231344CAF8443041462046FEF7B0
:205CE000E7FC21692668012900F0CD80280704D5029B03EB471308229A60E90604D5029BCC
:205D000003EB471310229A606A0604D5029B03EB471340229A60AB0704D5029B03EB471315
:205D200002229A602D06ABD5DAE9130C06EB471BDAF84020DBF8181905960BF5106BA0EB86
:205D40000C0393421D4628BF154689B205F1030EB1EB9E0F29D9604527D930B3DAF844107F
:205D60001D4606E0DAF84C209A421DD9D51ADAF84020237C0093954228BF1546ABB2424679
:205D80003046FDF725F9DBF81820DAF84410DAF85030E81C92B229442B44B2EB900FCAF8D6
:205DA0004410CAF85030DDD82668002D7FF468AF059B0122D3F83418BA4021EA0202C3F8B5
:205DC00034285DE7FDF78EF98046002800F0D6802068002706F5306905E05FEA580807F1AB
:205DE00001073FF445AE18F0010FF6D05FFA87FB5946FDF787F910F0010F82461ED0236957
:205E0000012109EB47128B42916010D1C7EBC70304EB83031169D3F80002D3F80422C1F397
:205E20001201411A0244C3F81012C3F8042259462046FEF733FC2169012971D01AF0080FB1
:205E400048D11AF0100F2CD12068C6E72046F9B2FEF76CFC2068436903F4801343614AE6CE
:205E60002046FEF72FFC2068436903F0080343613BE62046F9B2FEF755FC2068436903F423
:205E8000001343613DE6002F7FF430AFE36C002B7FF42CAF304604F56F72FDF76FF92668A5
:205EA00024E709EB4713102220689A6095E7B346049D039EE3E5D6F8042822F001022046E1
:205EC000C6F80428FEF72AFC2068436903F000434361DBE52046FEF7ADFB09EB4713082274
:205EE0009A60AEE7D8F8143043F00B03C8F81430D8F8103043F00B03C8F8103075E60322E9
:205F00004023E260636101F0E7FB454B454A0344934224D82268D36843F47053D3608BE6AB
:205F2000002F8BD1D4F80C32002B87D104F56F722068FDF723F981E7082204F56F713046F6
:205F4000C8EBC808FDF75AF804EB8802C5F30A13D2F8101220680B44C2F81032BBE5324A4F
:205F60003249236802448A420BD8DA6842F46052DA6061E60746D4F800B080E50746206878
:205F800076E5A0F574022A49A2F510528A4204D8DA6842F45052DA604EE6A0F1837225490B
:205FA000A2F5E7428A4204D8DA6842F44052DA6042E6214A214902448A4204D8DA6842F4D2
:205FC0003052DA6038E61E4A1E4902448A4204D8DA6842F42052DA602EE61B4A1B490244E3
:205FE0008A4204D8DA6842F41052DA6024E6A0F1B7721749A2F558528A4204D8DA6842F460
:020000040800F2
:206000000052DA6018E6134A134902448A42DA6894BF42F4E05242F4C052DA600CE600BFFB
:20602000405327FFFF340C00401E1BFF3F420F007F4F12001FD6130060B6E5FE5FE3160027
:2060400000D3CEFE3F771B00C05BB3FEBF9121001F753800E05459FEDF9C410090F8B8330D
:20606000012B0BD010B50123044680F8B8330068FDF70CF8002084F8B80310BD0220704726
:2060800070B50C0601F07F0524D4C1EBC10400EB84041C2606FB0101002684F8F851C4F88C
:2060A000002284F8FB3184F8F96101F5FC71022B04BF00230B7190F8B833012B1CD001239F
:2060C000044680F8B8330068FCF778FD002084F8B80370BDC5EBC50400EB84041C2101FB9A
:2060E00005012264012284F8385084F83B30E58784F839203831DAE7022070BD4BB2002B24
:2061000010B501F07F0216DB1C2404FB010101F5FC71DB0F4B700A7090F8B833012B15D010
:206120000123044680F8B8330068FCF787FD002084F8B80310BD1C2101FB02013831DB0FFC
:206140004B700A7090F8B833012BE9D1022010BD38B501F07F05C5EBC50400EB8404002153
:20616000C4F80422C4F8101284F8F911C4F80C3284F8F85103691C2101FB0501012B08BF7C
:20618000C4F8082201F5FC710068DAB21DB1FCF7B3FD002038BDFCF799FE002038BD00BFDE
:2061A00001F00F01C1EBC10100EB8101B1F81002704700BF70B501F07F05C5EBC50400EBD4
:2061C000840401210026626484F83910E36484F83850266503691C2101FB0501012B08BFF0
:2061E000A26438310068DAB21DB1FCF785FD002070BDFCF76BFE002070BD00BF38B54BB25A
:20620000002B01F07F0522DB1C2202FB010101F5FC71DB0F01224B700D708A7090F8B8338F
:20622000934219D0044680F8B8230068FCF7FAFE1DB1002084F8B80338BD04F56F72217C1F
:206240002068FCF79BFF002084F8B803F4E71C2101FB05013831DCE7022038BD38B54BB28B
:20626000002B01F07F0218DB1C2404FB010101F5FC71DB0F00254B700A708D7090F8B83336
:20628000012B0FD00446012380F8B8330068FCF7E5FE84F8B853284638BD1C2101FB0201BE
:2062A0003831E6E7022038BD30B5244B244A254C1A60012100228FB04FF4803518465D604E
:2062C0009C629A601A619A611A62DA62DA601A63D961596104F0C2FB50BB062401220023C1
:2062E00001A916480393CDE9014204F033FDD0B90620002301224FF480154FF4803405908A
:2063000005A90E48069209920793CDE90A330893CDE90C4502F0BEFC18B178210A48FEF7C2
:2063200053F90FB030BD68210748FEF74DF9DFE75E210548FEF748F9CFE700BF00CF002026
:20634000002001400100000F6095020830B5254B254A1A604FF4803100228FB04FF0805526
:206360004FF06064596018460121C3E90A459A601A619A611A62DA601A63D961596104F05B
:206380006DFB50BB0D240122002301A915480393CDE9014204F0DEFCD0B90A2000230122B6
:2063A0004FF480154FF48034059005A90D48069209920793CDE90A330893CDE90C4502F022
:2063C00069FC18B1AC210948FEF7FEF80FB030BD9C210648FEF7F8F8DFE792210348FEF731
:2063E000F3F8CFE7B8CE0020002101406095020830B5254B254A1A604FF4803100228FB062
:206400004FF080554FF06064596018460121C3E90A459A601A619A611A62DA601A63D96154
:20642000596104F01BFB50BB0C240122002301A915480393CDE9014204F08CFCD0B90B2051
:20644000002301224FF480154FF48034059005A90D48069209920793CDE90A330893CDE97E
:206460000C4502F017FC18B1E0210948FEF7ACF80FB030BDD0210648FEF7A6F8DFE7C621E7
:206480000348FEF7A1F8CFE748CF00200022014060950208F0B5474A0368934289B007D04E
:2064A000454A93426AD0454A934248D009B0F0BD0026434B00965A6C424C42F480725A64D8
:2064C0005B6C059603F48073009303272F2303A905463D48009A0393049704F0E3FC7023B4
:2064E00003A93A480393CDE9047604F0DBFC384820604FF480674FF400614FF400524FF437
:20650000807320466660C4E90266C4E90866C4E90471C4E90623FEF753FE20B14FF48A71DF
:206520002C48FEF751F8AC63002205211220A563FBF72AFD1220FBF75DFD09B0F0BD204BB0
:206540002148002402945A6C42F480625A645B6C059403F4806302930F220323CDE903237A
:20656000029D03A904F09EFC224605211220FBF70BFD1220FBF73EFD09B0F0BD0024104B44
:2065800001945A6C104842F400725A645B6C059403F40073019303A92F230325CDE9033570
:2065A000019A04F07FFC702303A908480393CDE90454D7E7002001400021014000220140BA
:2065C0000038024090CF00200008024000000240106402406095020830B54B7883B00D4653
:2065E0000446092B0BD8DFE803F032460A590A05660A7D158B8813B9CB88002B7FD0802147
:206600002046FEF707F920460021FEF703F9002003B030BD8978984D01292970EFD890F8EF
:20662000FC31022B00F08280032BE8D1002900F01281416801292DD0C9B2FEF7A7FC2978F7
:2066400061602046FEF798FC022823D1D7E790F8FC310122023B93424FF00301CFD8D0F812
:206660000432C26003B1C160022204F10C012046FBF700FDCBE790F8FC31023B012BBED80C
:206680004B88012BC3D1D0F8143200229B68C0F8042298472046FBF71BFDB8E74B88012B69
:2066A000B5D1D0F81422C0F80432936898472046FBF70EFDABE749880B0A013B062B9ED8D0
:2066C00001A252F823F000BFD1670008B9670008A9670008FF650008FF65000893670008A1
:2066E00053670008CA88012A89D190F8FC31022B28D0032B83D1011DFBF7BCFC87E790F8E7
:20670000FC31032B3FF47BAF8D7805F07F0580F8FE512946FEF7AEF82046FBF7D9FC002D18
:2067200000F08E80022384F8FC3170E70029B1D001210323416080F8FC31FEF71DFC0228C6
:20674000A8D15CE70146002341F8083FFBF792FC5DE7037C002B7FF452AFD0F814320DF1A5
:2067600006001B6B984707234370BDF80630002B3FF44DAFEA88002A3FF449AF934228BF09
:20678000134601461A462046ADF80630FBF772FC3DE7037C002B7FF432AFD0F814320DF12A
:2067A00006005B6B9847E0E7C9B205295DD8DFE801F0271F17372F3F027CD0F81432002A19
:2067C00042D19B6A0DF10600984702234370CCE7D0F81032007C1B680DF106019847C4E79B
:2067E000D0F81032007CDB680DF106019847BCE7D0F81032007C9B680DF106019847B4E741
:20680000D0F81032007C5B680DF106019847ACE7D0F81032007C5B690DF106019847A4E7FF
:20682000D0F81032007C1B690DF1060198479CE7D0F81032007C9B690DF10601984794E7FE
:20684000012384F8FC31E2E6DB6A0DF1060098470223437089E70223416080F8FC31FEF7D3
:2068600095FB2046FBF734FCD1E6D0F814320DF106029B6B984778E74406002038B590F812
:20688000FC31032B04460BD10B79012B0D4607D8D0F814329B689847EB8853B1002038BD19
:2068A0008021FDF7B7FF20460021FDF7B3FF002038BD2046FBF70CFC002038BD38B50B7866
:2068C00003F06003202B054605D1D0F814329B689847002038BD4B788A88012B0C46D1B21B
:2068E00030D014D3032BF4D190F8FC31022B2DD0032B3BD163881BB94A0601D0FDF78AFF48
:20690000D5F8143221469B68284698472AE090F8FC31022B1AD0032B28D101F07F03120625
